:100000000C9436000C945E000C945E000C945E0020
:100010000C945E000C9414020C945E000C945E0030
:100020000C945E000C945E000C945E000C945E00D8
:100030000C945E000C945E000C945E000C945E00C8
:100040000C94DF060C945E000C9470050C94A205D1
:100050000C945E000C945E000C945E000C945E00A8
:100060000C9463020C945E002704D20511241FBE79
:10007000CFEFD8E0DEBFCDBF11E0A0E0B1E0E2E617
:10008000FFE002C005900D92A633B107D9F722E038
:10009000A6E3B1E001C01D92A73BB207E1F710E073
:1000A000CCE6D0E004C02297FE010E94AB07C83620
:1000B000D107C9F70E94D0060C94AF070C9400003A
:1000C000E8E6F0E0808184608083EDE6F0E0808106
:1000D000846080838081806180838081806280836E
:1000E0008081806480830895CF92DF92EF92FF92A7
:1000F0000F931F932091400130914101211531054B
:1001000039F429B130910301232309F079C004C0E7
:100110002130310509F453C020913E0130913F0157
:100120002115310509F07BC029B13091020123234B
:1001300071F021E030E030933F0120933E01609365
:100140004A0170934B0180934C0190934D01209193
:100150003A0130913B012115310509F085C029B1E3
:1001600030910101232371F021E030E030933B0115
:1001700020933A01609342017093430180934401BC
:100180009093450120913C0130913D0121153105AD
:1001900009F08FC029B130910001232309F4ABC0CD
:1001A00021E030E030933D0120933C016093460113
:1001B0007093470180934801909349019CC029B1F5
:1001C00030910301232309F0A7CF1092410110922F
:1001D000400100914E0110914F012091500130914A
:1001E00051016B017C01C01AD10AE20AF30AC092E4
:1001F0004E01D0924F01E0925001F09251018CCF0C
:1002000021E030E0309341012093400160934E01A2
:1002100070934F0180935001909351017DCF213015
:10022000310509F094CF29B130910201232309F05F
:100230008ECF10923F0110923E0100914A01109121
:100240004B0120914C0130914D016B017C01C01A92
:10025000D10AE20AF30AC0924A01D0924B01E0921D
:100260004C01F0924D0173CF2130310509F08ACF56
:1002700029B130910101232309F084CF10923B0171
:1002800010923A01009142011091430120914401E2
:10029000309145016B017C01C01AD10AE20AF30AD0
:1002A000C0924201D0924301E0924401F092450194
:1002B00069CF21303105F9F429B1309100012323B0
:1002C000D1F410923D0110923C0100914601109131
:1002D00047012091480130914901DC01CB01801B8D
:1002E000910BA20BB30B8093460190934701A0930F
:1002F0004801B09349011F910F91FF90EF90DF905B
:10030000CF900895219AE8E6F0E0808184608083B0
:10031000EDE6F0E08081846080838081806180836D
:1003200080818062808380818064808308958F9241
:100330009F92AF92BF92CF92DF92EF92FF92CF93B4
:10034000C82F4A015B010E9429076B017C01C80C80
:10035000D91CEA1CFB1C95B19C2B95B90E9429075E
:100360006C157D058E059F05C8F395B181E0C1111F
:1003700080E0892385B9CF91FF90EF90DF90CF90F7
:10038000BF90AF909F908F90089540914E015091F3
:100390004F0160915001709151012AE030E081E1FC
:1003A00092E00C94BD060E9460000E94820126E04B
:1003B00040E855E260E070E081E192E00C940E05C7
:1003C000CF92DF92EF92FF920E942907609336014D
:1003D000709337018093380190933901C0903601B2
:1003E000D0903701E0903801F090390180EAC80ED2
:1003F0008FE0D81EE11CF11C0E9429076C157D05B9
:100400008E059F0558F340914E0150914F01609128
:1004100050017091510182E00E949701FF90EF908E
:10042000DF90CF900C94C5011F920F920FB60F92E0
:1004300011242F933F934F935F936F937F938F93E9
:100440009F93AF93BF93EF93FF930E9429070E945E
:100450007400FF91EF91BF91AF919F918F917F9128
:100460006F915F914F913F912F910F900FBE0F9021
:100470001F901895613298F42091BF01243089F4BF
:1004800060937401FC0186E791E0DC012A2F281BB0
:10049000261718F421912D93F9CF80E0089581E07B
:1004A000089582E0089585ED8093BC008091BC00A2
:1004B00084FDFCCF1092BF01089585EC8093BC00B1
:1004C0001092BF0108951F920F920FB60F92112440
:1004D0002F933F934F935F936F937F938F939F934C
:1004E000AF93BF93EF93FF938091B900887F8036DD
:1004F00009F49CC068F5883209F45BC090F480313F
:1005000009F454C038F4882309F4F5C0883009F49C
:100510004DC0F5C0883109F44CC0803209F45DC08B
:10052000EEC0803409F468C048F4803309F455C043
:10053000883309F0E4C080935201A8C0803509F4E3
:100540004FC0883509F45DC0883409F0D8C0D5C0E3
:10055000883909F4C6C0A8F4883709F467C038F4AC
:10056000883609F463C0803709F460C0C8C0883891
:1005700009F4B7C0803909F45FC0803809F0BFC002
:100580005BC0803B09F485C038F4803A09F466C04A
:10059000883A09F47EC0B3C0803C09F4A6C0883C08
:1005A00009F4A3C0883B09F489C0A9C08091BE01A9
:1005B00010C09091970180919601981770F5E09185
:1005C000970181E08E0F80939701F0E0E856FE4F8F
:1005D00080818093BB0085EC85C0809352018DC0E3
:1005E000E091970181E08E0F809397018091BB008D
:1005F000F0E0E856FE4F808390919701809196013C
:100600006DC0E091970181E08E0F809397018091FA
:10061000BB00F0E0E856FE4F80838091BD01811160
:100620006CC081E08093BC0184EA60C083E0809369
:10063000BF0110925301CFCF80915301803208F057
:1006400050C0E091530181E08E0F8093530180915F
:10065000BB00F0E0EC5AFE4F8083BDCF8091530188
:10066000803230F4E0915301F0E0EC5AFE4F1082FA
:100670000E9453026091530170E0E091B801F09143
:10068000B90184E591E00995109253010E945D0241
:1006900036C084E08093BF011092750110927401FE
:1006A000E091BA01F091BB0109958091740181112B
:1006B00005C081E08093740110927601E09175018C
:1006C00081E08E0F80937501F0E0EA58FE4F808143
:1006D0008093BB009091750180917401981708F484
:1006E0007ACF85E88093BC000AC085EC8093BC007B
:1006F0001092BF0104C0109252010E945302FF9158
:10070000EF91BF91AF919F918F917F916F915F9189
:100710004F913F912F910F900FBE0F901F90189502
:100720008091EF0190E02091F001821B91090895E2
:100730002091F0018091EF01281750F4E22FF0E0B2
:10074000EF50FE4F808190E02F5F2093F0010895DD
:100750008FEF9FEF0895E091F0018091EF01E8178E
:1007600030F4F0E0EF50FE4F808190E008958FEF7D
:100770009FEF08950895CF92DF92EF92FF920F932B
:100780001F93CF93DF937C01CB018A012091CC0191
:10079000222389F0EB016B01C40ED51ECC15DD05BB
:1007A00069F06991D701ED91FC910190F081E02D04
:1007B000C7010995F3CF642F0E943A02C801DF9167
:1007C000CF911F910F91FF90EF90DF90CF90089500
:1007D000CF93DF931F92CDB7DEB769832091CC0111
:1007E0002223D1F02091CD01203240F021E030E0F1
:1007F000FC013383228380E090E015C08091CE011C
:10080000E82FF0E0E153FE4F998190838F5F809352
:10081000CE018093CD0105C061E0CE0101960E941A
:100820003A0281E090E00F90DF91CF910895FC01B2
:100830001382128248EE53E060E070E044835583F7
:100840006683778388E091E091838083089580ECCC
:1008500091E00C941704FC01818D228D90E0805C66
:100860009F4F821B91098F7399270895FC01918DE9
:10087000828D981731F0828DE80FF11D858D90E003
:1008800008958FEF9FEF0895FC01918D828D981749
:1008900061F0828DDF01A80FB11D5D968C91928D64
:1008A0009F5F9F73928F90E008958FEF9FEF089561
:1008B00088EC95E0892B49F080E090E0892B29F0C5
:1008C0000E94C80581110C9400000895FC01848DDC
:1008D000DF01A80FB11DA35ABF4F2C91848D90E06A
:1008E00001968F739927848FA689B7892C93A08945
:1008F000B1898C9180648C93938D848D981306C0FC
:100900000288F389E02D80818F7D80830895CF93C5
:10091000DF93EC01888D8823C9F0EA89FB89808107
:1009200085FD05C0A889B9898C9186FD0FC00FB6D9
:1009300007FCF5CF808185FFF2CFA889B9898C911A
:1009400085FFEDCFCE010E946604E7CFDF91CF9106
:100950000895CF92DF92FF920F931F93CF93DF936F
:100960001F92CDB7DEB76C0181E0D60158968C930B
:1009700058975B969C915B975C968C915C979813CB
:1009800007C05096ED91FC915197808185FD2EC056
:10099000F601038D10E00F5F1F4F0F731127F02E2C
:1009A000F601848DF81211C00FB607FCF9CFD601FD
:1009B0005096ED91FC915197808185FFF1CFC60152
:1009C00069830E9466046981EBCF838DE80FF11D76
:1009D000E35AFF4F6083D6015B960C935B97529668
:1009E000ED91FC915397808180620CC0D6015696A0
:1009F000ED91FC91579760835096ED91FC91519742
:100A000080818064808381E090E00F90DF91CF91BE
:100A10001F910F91FF90DF90CF900895BF92CF92DA
:100A2000DF92EF92FF92CF93DF93EC016A017B019B
:100A3000B22EE889F98982E08083411581EE58075A
:100A400061057105A1F060E079E08DE390E0A70118
:100A500096010E9487072150310941095109569595
:100A6000479537952795211580E1380798F0E88953
:100A7000F989108260E874E88EE190E0A7019601A0
:100A80000E94870721503109410951095695479520
:100A900037952795EC85FD853083EE85FF8520838E
:100AA000188EEC89FD89B082EA89FB89808180619A
:100AB0008083EA89FB89808188608083EA89FB8959
:100AC000808180688083EA89FB8980818F7D808333
:100AD000DF91CF91FF90EF90DF90CF90BF9008957E
:100AE0001F920F920FB60F9211242F938F939F9303
:100AF000EF93FF93E0912102F09122028081E09137
:100B00002702F091280282FD12C0908180912A0272
:100B10008F5F8F7320912B02821751F0E0912A0290
:100B2000F0E0EF5EFD4F958F80932A0201C0808137
:100B3000FF91EF919F918F912F910F900FBE0F908A
:100B40001F9018951F920F920FB60F9211242F939A
:100B50003F934F935F936F937F938F939F93AF9345
:100B6000BF93EF93FF9381E192E00E946604FF91AF
:100B7000EF91BF91AF919F918F917F916F915F9115
:100B80004F913F912F910F900FBE0F901F9018958E
:100B900081E192E00E942B0421E0892B09F420E0FE
:100BA000822F0895109214021092130288EE93E09F
:100BB000A0E0B0E08093150290931602A093170274
:100BC000B093180288E191E0909312028093110291
:100BD00085EC90E090931E0280931D0284EC90E0DF
:100BE0009093200280931F0280EC90E09093220269
:100BF0008093210281EC90E0909324028093230261
:100C000082EC90E0909326028093250286EC90E09F
:100C1000909328028093270210922A0210922B02AE
:100C200010922C0210922D020895CF92DF92EF9233
:100C3000FF920F931F93CF93DF936C017A01EB0127
:100C4000E60EF71E00E010E0CE15DF0561F06991B9
:100C5000D601ED91FC910190F081E02DC60109953E
:100C6000080F191FF1CFC801DF91CF911F910F918C
:100C7000FF90EF90DF90CF9008956115710581F09E
:100C8000DB010D900020E9F7AD0141505109461BF1
:100C9000570BDC01ED91FC910280F381E02D09946A
:100CA00080E090E0089564E271E00C943D068F923C
:100CB0009F92AF92BF92CF92DF92EF92FF920F93EB
:100CC0001F93CF93DF93CDB7DEB7A1970FB6F894FC
:100CD000DEBF0FBECDBF7C01C42EE52FCB01D22ECF
:100CE00019A221E02D1510F02AE0D22E8E010F5D01
:100CF0001F4F8D2C912CA12CB12C6C2D7E2FA5017A
:100D000094010E9487078C2DD29E801911240150D6
:100D100011098A3014F4805D01C0895CF801808378
:100D2000211531054105510521F0C22EE32FCA01DD
:100D3000E4CFB801C7010E943D06A1960FB6F89412
:100D4000DEBF0FBECDBFDF91CF911F910F91FF90FE
:100D5000EF90DF90CF90BF90AF909F908F900895CD
:100D60002115310541F4DC01ED91FC910190F081F8
:100D7000E02D642F09940C9457060F931F93CF9383
:100D8000DF93EC010E94B0068C01CE010E94530655
:100D9000800F911FDF91CF911F910F9108950895BA
:100DA0000E944C070E94CF060E94D301C8E5D4E000
:100DB0000E94E0012097E1F30E945804F9CF1F92AE
:100DC0000F920FB60F9211242F933F938F939F93FF
:100DD000AF93BF938091AF029091B002A091B10206
:100DE000B091B2023091AE0223E0230F2D3720F4F0
:100DF0000196A11DB11D05C026E8230F0296A11D75
:100E0000B11D2093AE028093AF029093B002A093E5
:100E1000B102B093B2028091B3029091B402A0915A
:100E2000B502B091B6020196A11DB11D8093B30227
:100E30009093B402A093B502B093B602BF91AF9164
:100E40009F918F913F912F910F900FBE0F901F9008
:100E500018953FB7F8948091B3029091B402A09195
:100E6000B502B091B60226B5A89B05C02F3F19F078
:100E70000196A11DB11D3FBF6627782F892F9A2F9C
:100E8000620F711D811D911D42E0660F771F881F43
:100E9000991F4A95D1F70895789484B5826084BDEE
:100EA00084B5816084BD85B5826085BD85B581606E
:100EB00085BDEEE6F0E0808181608083E1E8F0E0CE
:100EC0001082808182608083808181608083E0E8FD
:100ED000F0E0808181608083E1EBF0E080818460DC
:100EE0008083E0EBF0E0808181608083EAE7F0E0DE
:100EF0008081846080838081826080838081816042
:100F000080838081806880831092C1000895A1E26F
:100F10001A2EAA1BBB1BFD010DC0AA1FBB1FEE1F73
:100F2000FF1FA217B307E407F50720F0A21BB30BBE
:100F3000E40BF50B661F771F881F991F1A9469F73A
:100F400060957095809590959B01AC01BD01CF0196
:100F50000895EE0FFF1F0590F491E02D0994F89489
:020F6000FFCFC1
:100F62004020100400000000E803BB039003980334
:100F7200AB03BA0300000000A90415062B044404C5
:100F8200360487040D0A006E616E00696E66006F9A
:060F92007666002E00004F
:00000001FF
